:1000000013C022C021C020C01FC01EC01DC01CC004
:100010001BC01AC019C018C017C016C015C014C024
:1000200013C012C011C010C011241FBECFEFD1E009
:10003000DEBFCDBF21E0A0E0B1E001C01D92A33141
:10004000B207E1F77ED0D6C0DBCF81E08BB989B1B2
:1000500090E0909305018093040189B1282F30E04E
:100060003093050120930401232BE1F0803169F0E6
:1000700018F4883031F014C0803259F0803469F0BF
:100080000FC081E380930C010BC084E380930C01CB
:1000900007C087E380930C0103C08AE280930C01C0
:1000A00082E08BB989B1282F30E03093050120938D
:1000B0000401232BE1F0823169F018F48A3031F029
:1000C00014C0823259F0823469F00FC082E3809309
:1000D0000C010BC085E380930C0107C088E380937B
:1000E0000C0103C080E380930C0184E08BB989B1DB
:1000F000282F30E03093050120930401232BF1F0E9
:10010000843169F018F48C3031F014C0843259F025
:10011000843469F00FC083E380930C010BC086E345
:1001200080930C0107C089E380930C0103C083E234
:1001300080930C01109205011092040180910C0132
:10014000089581E580930C01109201011092000145
:1001500087E08AB910920B0110920A0181E090E0C9
:100160009093030180930201CDE0D1E06EDF809394
:100170000C016A817B8190E001D0F8CF0F931F932F
:10018000CF93DF93FB01238121FD03C08FEF9FEF0E
:100190002CC022FF16C04681578124813581421729
:1001A000530744F4A081B1819D012F5F3F4F3183FC
:1001B00020838C93268137812F5F3F4F378326839F
:1001C00014C08B01EC01FB010084F185E02D099541
:1001D000892BE1F6D80116968D919C91179701967F
:1001E00017969C938E931697CE01DF91CF911F9116
:0801F0000F910895F894FFCF70
:00000001FF
